{
  "contractName": "Voting",
  "abi": [
    {
      "inputs": [
        {
          "internalType": "string[]",
          "name": "candidates",
          "type": "string[]"
        }
      ],
      "stateMutability": "nonpayable",
      "type": "constructor"
    },
    {
      "inputs": [],
      "name": "candidateIdTracker",
      "outputs": [
        {
          "internalType": "uint256",
          "name": "",
          "type": "uint256"
        }
      ],
      "stateMutability": "view",
      "type": "function",
      "constant": true
    },
    {
      "inputs": [
        {
          "internalType": "uint256",
          "name": "",
          "type": "uint256"
        }
      ],
      "name": "candidateList",
      "outputs": [
        {
          "internalType": "uint256",
          "name": "id",
          "type": "uint256"
        },
        {
          "internalType": "string",
          "name": "name",
          "type": "string"
        },
        {
          "internalType": "uint256",
          "name": "votes",
          "type": "uint256"
        }
      ],
      "stateMutability": "view",
      "type": "function",
      "constant": true
    },
    {
      "inputs": [
        {
          "internalType": "uint40",
          "name": "",
          "type": "uint40"
        }
      ],
      "name": "hasVoted",
      "outputs": [
        {
          "internalType": "bool",
          "name": "",
          "type": "bool"
        }
      ],
      "stateMutability": "view",
      "type": "function",
      "constant": true
    },
    {
      "inputs": [
        {
          "internalType": "uint40",
          "name": "aadhaarId",
          "type": "uint40"
        },
        {
          "internalType": "uint256",
          "name": "candidateId",
          "type": "uint256"
        }
      ],
      "name": "voteCandidate",
      "outputs": [],
      "stateMutability": "nonpayable",
      "type": "function"
    }
  ],
  "bytecode": "0x608060405234801561001057600080fd5b5060405161073d38038061073d83398101604081905261002f916101e5565b60008080555b8151811015610078576100668282815181106100535761005361031b565b602002602001015161007f60201b60201c565b8061007081610331565b915050610035565b5050610392565b6100a360405180606001604052806000815260200160608152602001600081525090565b600080548083526020808401858152604080860185905292845260018083529290932084518155925180518594936100e093908501920190610106565b50604091909101516002909101556000805490806100fd83610331565b91905055505050565b82805461011290610358565b90600052602060002090601f016020900481019282610134576000855561017a565b82601f1061014d57805160ff191683800117855561017a565b8280016001018555821561017a579182015b8281111561017a57825182559160200191906001019061015f565b5061018692915061018a565b5090565b5b80821115610186576000815560010161018b565b634e487b7160e01b600052604160045260246000fd5b604051601f8201601f191681016001600160401b03811182821017156101dd576101dd61019f565b604052919050565b600060208083850312156101f857600080fd5b82516001600160401b038082111561020f57600080fd5b8185019150601f868184011261022457600080fd5b8251828111156102365761023661019f565b8060051b6102458682016101b5565b918252848101860191868101908a84111561025f57600080fd5b87870192505b8383101561030d5782518681111561027d5760008081fd5b8701603f81018c1361028f5760008081fd5b88810151878111156102a3576102a361019f565b6102b4818801601f19168b016101b5565b81815260408e818486010111156102cb5760008081fd5b60005b838110156102e9578481018201518382018e01528c016102ce565b838111156102fa5760008d85850101525b5050845250509187019190870190610265565b9a9950505050505050505050565b634e487b7160e01b600052603260045260246000fd5b60006001820161035157634e487b7160e01b600052601160045260246000fd5b5060010190565b600181811c9082168061036c57607f821691505b60208210810361038c57634e487b7160e01b600052602260045260246000fd5b50919050565b61039c806103a16000396000f3fe608060405234801561001057600080fd5b506004361061004c5760003560e01c80630a512c10146100515780631603d94d1461006d5780635cc169f4146100a0578063b13c744b146100b5575b600080fd5b61005a60005481565b6040519081526020015b60405180910390f35b61009061007b36600461023b565b60026020526000908152604090205460ff1681565b6040519015158152602001610064565b6100b36100ae36600461025d565b6100d7565b005b6100c86100c3366004610287565b610177565b604051610064939291906102a0565b64ffffffffff821660009081526002602052604090205460ff16156101325760405162461bcd60e51b815260206004820152600d60248201526c10531491505116481593d51151609a1b604482015260640160405180910390fd5b64ffffffffff82166000908152600260208181526040808420805460ff1916600190811790915585855290915282200180549161016e83610305565b91905055505050565b6001602081905260009182526040909120805491810180546101989061032c565b80601f01602080910402602001604051908101604052809291908181526020018280546101c49061032c565b80156102115780601f106101e657610100808354040283529160200191610211565b820191906000526020600020905b8154815290600101906020018083116101f457829003601f168201915b5050505050908060020154905083565b803564ffffffffff8116811461023657600080fd5b919050565b60006020828403121561024d57600080fd5b61025682610221565b9392505050565b6000806040838503121561027057600080fd5b61027983610221565b946020939093013593505050565b60006020828403121561029957600080fd5b5035919050565b83815260006020606081840152845180606085015260005b818110156102d4578681018301518582016080015282016102b8565b818111156102e6576000608083870101525b5060408401949094525050601f91909101601f19160160800192915050565b60006001820161032557634e487b7160e01b600052601160045260246000fd5b5060010190565b600181811c9082168061034057607f821691505b60208210810361036057634e487b7160e01b600052602260045260246000fd5b5091905056fea26469706673582212209d3ef9c5aac5c8cd153b676d61c123da417c215d6fb30b7c7cf9c06402408f5b64736f6c634300080d0033",
  "immutableReferences": {},
  "source": "// SPDX-License-Identifier: MIT\npragma solidity >=0.4.22 <0.9.0;\n\ncontract Voting {\n    uint256 public candidateIdTracker;\n    struct Candidate {\n        uint256 id;\n        string name;\n        uint256 votes;\n    }\n\n    mapping(uint256 => Candidate) public candidateList;\n\n    function createCandidate(string memory name) private {\n        Candidate memory candidate;\n        candidate.id = candidateIdTracker;\n        candidate.name = name;\n        candidate.votes = 0;\n        candidateList[candidateIdTracker] = candidate;\n        candidateIdTracker++;\n    }\n\n    constructor(string[] memory candidates) {\n        candidateIdTracker = 0;\n        // [\"Candidate A\", \"Candidate B\", \"Candidate C\"]\n        for (uint256 i = 0; i < candidates.length; i++) {\n            createCandidate(candidates[i]);\n        }\n    }\n\n    mapping(uint40 => bool) public hasVoted;\n\n    function voteCandidate(uint40 aadhaarId, uint256 candidateId) public {\n        require(hasVoted[aadhaarId] == false, \"ALREADY VOTED\");\n        hasVoted[aadhaarId] = true;\n        candidateList[candidateId].votes++;\n    }\n}\n",
  "sourcePath": "/home/nishavak/Projects/BDF IA/contracts/Voting.sol",
  "compiler": {
    "name": "solc",
    "version": "0.8.13+commit.abaa5c0e.Emscripten.clang"
  },
  "schemaVersion": "3.4.7",
  "updatedAt": "2022-04-10T16:59:32.051Z",
  "networkType": "ethereum",
  "devdoc": {
    "kind": "dev",
    "methods": {},
    "version": 1
  },
  "userdoc": {
    "kind": "user",
    "methods": {},
    "version": 1
  }
}